:100000000C9460030C948A0A0C947D030C947D0379
:100010000C947D030C947D030C947D030C947D0360
:100020000C947D030C947D030C947D030C947D0350
:100030000C947D030C947D030C947D030C947D0340
:100040000C947D030C947D030C947D030C947D0330
:100050000C947D030C947D030C947D030C947D0320
:100060000C947D030C947D030C947D030C947D0310
:1000700000000000005C00000C000C007C287C28C4
:1000800058DC68002410480028542840000C000068
:10009000007884008478000054385400107C1000EC
:1000A00080400000101010000040000060100C00A4
:1000B00038543800487C40004864580044542C00B0
:1000C0001C107C005C5424003854240064140C0080
:1000D00068542C0048543800004800008048000054
:1000E0001028440028282800442810000454080040
:1000F00038445C00781478007C5428003844280088
:100100007C4438007C5444007C140400384474005F
:100110007C107C00447C440020403C007C106C003F
:100120007C4040007C187C0078103C00384438004B
:100130007C1408003844B8007C146800485424003B
:10014000047C04007C407C003C603C007C307C00F3
:100150006C106C000C700C0064544C00007C44006B
:100160000C106000447C00000804080080808000BF
:1001700000040800304878007C48300030484800CF
:1001800030487C00306850001078140090A8780047
:100190007C08700050744000808074007C106800FF
:1001A000447C4000781078007808700030483000B7
:1001B000F82810003048F80078100800505828003F
:1001C000083C4800384078003840380078207800F3
:1001D0004830480098A0780048685800107884009B
:1001E000007C00008478100008040804000000006F
:1001F0000000005F00000007000700147F147F1458
:10020000242A7F2A1223130864623649552250009B
:1002100005030000001C2241000041221C00082AA6
:100220001C2A0808083E080800503000000808088A
:100230000808006060000020100804023E51494593
:100240003E00427F400042615149462141454B31C9
:100250001814127F1027454545393C4A4949300159
:10026000710905033649494936064949291E0036B0
:100270003600000056360000000814224114141401
:10028000141441221408000201510906324979412F
:100290003E7E1111117E7F494949363E414141223E
:1002A0007F4141221C7F494949417F090901013EA3
:1002B000414151327F0808087F00417F41002040C2
:1002C000413F017F081422417F404040407F0204AB
:1002D000027F7F0408107F3E4141413E7F090909AA
:1002E000063E4151215E7F09192946464949493157
:1002F00001017F01013F4040403F1F2040201F7F00
:100300002018207F631408146303047804036151E8
:1003100049454300007F4141020408102041417FCC
:100320000000040201020440404040400001020479
:100330000020545454787F4844443838444444207E
:10034000384444487F3854545418087E0901020840
:100350001454543C7F0804047800447D400020403D
:10036000443D00007F10284400417F40007C041879
:1003700004787C0804047838444444387C14141409
:1003800008081414187C7C080404084854545420A9
:10039000043F4440203C4040207C1C2040201C3C2A
:1003A0004030403C44281028440C5050503C446499
:1003B000544C44000836410000007F0000004136E4
:1003C000080002010302010000000000000000001C
:1003D000065F5F0600000000070700070700001423
:1003E0007F7F147F7F1400242E6B6B3A120000462F
:1003F0006630180C666200307A4F5D377A48000428
:1004000007030000000000001C3E634100000000E4
:1004100041633E1C000000082A3E1C1C3E2A0808BE
:10042000083E3E0808000000A0E060000000000850
:100430000808080808000000006060000000006074
:1004400030180C060301003E7F594D7F3E000042EC
:10045000427F7F40400000627359496F660000226E
:100460006349497F360000181C16137F7F10002750
:100470006745457D3900003C7E4B497930000003DB
:100480006371190F070000367F49497F3600000667
:100490004F49693F1E000000006C6C000000000026
:1004A000A0EC6C00000000081C3663410000001442
:1004B00014141414140000004163361C08000002D8
:1004C0000351590F0600003E7F415D5D1F1E007CF9
:1004D0007E13137E7C0000417F7F49497F36001CDC
:1004E0003E634141632200417F7F41637F1C0041A5
:1004F0007F7F495D416300417F7F491D0103001CEF
:100500003E6341517372007F7F08087F7F000000C7
:10051000417F7F41000000307040417F3F0100413A
:100520007F7F081C776300417F7F41406070007FC0
:100530007F060C067F7F007F7F060C187F7F001CE4
:100540003E6341633E1C00417F7F49090F06001E48
:100550003F21717F5E0000417F7F19396F46002681
:10056000674D597B32000003417F7F410300007FCC
:100570007F40407F7F00001F3F60603F1F00007F83
:100580007F3018307F7F0063771C081C776300077B
:100590004F78784F0700006773594D47637100002B
:1005A0007F7F41410000000103060C18306000000D
:1005B00041417F7F000000080C0603060C08008004
:1005C000808080808080800818306030180800208B
:1005D0007454543C784000413F7F44447C38003898
:1005E0007C44446C280000307848493F7F40003804
:1005F0007C54545C180000487E7F49030200009838
:10060000BCA4A4F87C0400417F7F08047C7800002F
:10061000447D7D4000000040C484FD7D0000004119
:100620007F7F10386C440000417F7F400000007CD9
:100630007C0C180C7C78007C7C04047C78000038EE
:100640007C44447C38000084FCF8A4243C18001846
:100650003C24A4F8FC8400447C78441C1800004826
:100660005C54547424000000043E7F442400003C89
:100670007C40403C7C40001C3C60603C1C00003CDA
:100680007C6030607C3C00446C3810386C44009CCA
:10069000BCA0A0FC7C00004C64745C4C64000008AE
:1006A000083E7741410000000000777700000041DC
:1006B00041773E0808000002030103020301000025
:1006C00011241FBECFEFD4E0DEBFCDBF12E0A0E00B
:1006D000B1E0E4EBF1E202C005900D92A438B1075D
:1006E000D9F722E0A4E8B2E001C01D92AE38B2070B
:1006F000E1F70E947F030C94D8100C94C30ACF93A7
:10070000DF93CDB7DEB762970FB6F894DEBF0FBEAA
:10071000CDBF0E94D9030E9437048FE190E00E9470
:10072000D0030E947D0A0E94890980E88D838E8310
:100730000EE011E08F851F928F938D851F928F930E
:100740008E851F928F938E811F928F938D811F9222
:100750008F931F930F930E94230C9E01205F3F4FA6
:10076000AE01495F5F4FBE01635F7F4FCE010196CF
:100770000E94230B0FB6F894DEBF0FBECDBFDACFB9
:100780005D9BFECF8CB908955F9BFECF8CB1089521
:10079000599890BD89B988E18AB98EE880BD0895DD
:1007A0000E94C80364EC73E080EC93E00E94D80BD5
:1007B000089580B7806280BF85B7806885BF08953F
:1007C000FB01F85E80830895985EFC0180810895A6
:1007D000EF92FF920F931F93CF93DF938FE191E0FE
:1007E0009F938F930E94230C0E94C80B7C010E9450
:1007F000CD0B0F900F90C0E0D8E100E010E00E9418
:10080000C80B88839881981711F00F5F1F4F2196AE
:10081000C11580E2D80799F7C7010E94CD0BC0E04F
:10082000D8E1E12CF12C0E94C80B9881981719F09F
:100830008FEFE81AF80A2196C11580E2D80799F7D8
:10084000FF92EF921F930F9387E391E09F938F9313
:100850000E94230C0F900F900F900F900F900F900D
:10086000DF91CF911F910F91FF90EF900895B89A6B
:1008700083B7886083BF83B78F7B83BF83B78F7D48
:1008800083BF83B7806183BF83B78B7F83BF83B709
:100890008D7F83BF83B7816083BF11BE089580932E
:1008A00000140895809100140895CF93DF93EC0114
:1008B00082E80E944F0482E08A95F1F700000E94CE
:1008C00052048D8382E08A95F1F7000083E80E944C
:1008D0004F0482E08A95F1F700000E9452048C8355
:1008E00082E08A95F1F70000DF91CF910895CF93D0
:1008F000DF93EC0182E80E944F0482E08A95F1F7D1
:1009000000000E945204282F30E09D81291B3109EC
:10091000A90122F444275527421B530B4A315105A4
:100920000CF08D8382E08A95F1F7000083E80E9445
:100930004F0482E08A95F1F700000E945204282FAC
:1009400030E09C81291B3109A90122F44427552755
:10095000421B530B4A3151050CF08C8382E08A957F
:10096000F1F70000DF91CF910895CF93DF93EC0171
:1009700081E80E944F0482E08A95F1F700000E940E
:100980005204888382E08A95F1F7000080E80E9493
:100990004F0482E08A95F1F700000E945204898397
:1009A00082E08A95F1F70000DF91CF910895FC0174
:1009B0008481813F20F021E030E0318320838A3040
:1009C00010F41182108285568B3320F484E090E07D
:1009D000918380838581813F20F022E030E0338362
:1009E00022838A3020F423E030E03383228385564B
:1009F0008B3320F484E090E09383828381818F9312
:100A000080818F9382E991E09F938F930E94230CC2
:100A10000F900F900F900F9008958B9820B328702F
:100A2000FC0122830895E0910201F09103018EEA16
:100A30008083E0910201F091030181EA8083E091DB
:100A40000201F09103018AED8083E0910201F091AF
:100A5000030182E18083E0910201F091030188ECBF
:100A60008083E0910201F091030188EA8083E091A4
:100A70000201F09103018FE38083E0910201F09184
:100A8000030185ED8083E0910201F091030180E88C
:100A90008083E0910201F091030181E88083E0917D
:100AA0000201F091030180E58083E0910201F09161
:100AB000030189ED8083E0910201F091030181E25D
:100AC0008083E0910201F091030180E28083E09154
:100AD0000201F091030182E08083E0910201F09134
:100AE00003018BED8083E0910201F091030180E32B
:100AF0008083E0910201F09103018DEA8083E0910F
:100B00000201F09103011082E0910201F0910301D2
:100B100084EA8083E0910201F091030186EA8083F8
:100B2000E0910201F09103018FEA80830895E09142
:100B30000201F091030180830895E0910001F0919A
:100B4000010180830895E0910201F0910301982F43
:100B50009F709F5F9083E0910201F0910301829565
:100B60008F70805F80830895E0910201F09103010E
:100B7000805580830895CF93DF93C82F862FD42F7D
:100B80000E94B4058D2F0E94A3058C2FCC0F990BCA
:100B90008097880F991F880F991F880F991FFC0154
:100BA000E953FC4F81539C4F2491A0910001B091D7
:100BB00001012C933196E817F907B1F7DF91CF9136
:100BC0000895CF93DF93C82F862FD42F0E94B405AA
:100BD0008D2F0E94A3058C2FCC0F990B9C01220F07
:100BE000331F220F331F820F931F20E030E0805A03
:100BF0009109FC01E20FF31FE451FE4FE491A09133
:100C00000001B0910101EC932F5F3F4F253031057A
:100C100081F7DF91CF910895CF93DF93C82F862F6F
:100C2000D42F0E94B4058D2F0E94A3058C2FCC0FCA
:100C3000990B8097880F991F880F991FFC01E05925
:100C4000FF4F8C589F4F2491A0910001B09101015A
:100C50002C933196E817F907B1F7DF91CF910895FA
:100C60000E94B40580E00E94A30580E890E0E09136
:100C70000001F091010110820197C9F70895CF9307
:100C8000C0E08C2F0E94B40580E00E94A30580E89C
:100C900090E0E0910001F091010110820197C9F705
:100CA000CF5FC83071F7CF9108950F931F93CF9303
:100CB000DF93FC01D62FC42F253049F0283019F0DE
:100CC0002430B1F508C08081811109C031C0808114
:100CD000811113C02DC0808181111DC029C08F01D9
:100CE0000F5F1F4F4C2F6D2F0E94BB05C65FF80191
:100CF00081918F018111F6CF1BC08F010F5F1F4FB4
:100D00004C2F6D2F0E94E105C95FF80181918F0181
:100D10008111F6CF0DC08F010F5F1F4F4C2F6D2F2C
:100D20000E940C06CA5FF80181918F018111F6CFF4
:100D3000DF91CF911F910F910895FF920F931F9311
:100D4000CF93DF938C01C62FD42FF22E862F0E94D3
:100D500030062F2D4D2F6C2FC8010E945506DF91B4
:100D6000CF911F910F91FF900895CF93DF93EC01E6
:100D70000E9413050E943F061B821A821D821C825C
:100D8000DF91CF910895FC017583648313861286E9
:100D9000158614860895CF93DF93EC01E881F981DD
:100DA0000280F381E02D24E044E162E084819581BA
:100DB0000E949D06E881F98128E044E164E0848195
:100DC00095810E949D06E881F9810190F081E02DD6
:100DD00024E044E166E0848195810E949D06DF91D4
:100DE000CF910895CF93DF93EC0125E040E060E0E0
:100DF00088E991E00E94550625E040E061E08EE937
:100E000091E00E945506E881F9810280F381E02D8E
:100E100024E044E162E0848195810E94550628E047
:100E200044E063E08FEA91E00E945506E881F98191
:100E300028E044E164E0848195810E94550628E021
:100E400044E065E081EB91E00E945506E881F9817C
:100E50000190F081E02D24E044E166E084819581F9
:100E60000E945506DF91CF9108957C01EB0110E0BF
:100E7000D12C01E0CE010E945504CE010E94D7047E
:100E80008A819B818430910521F1029779F4113098
:100E900009F047C0D701ED91FC91119782819381B0
:100EA0008D939C93C7010E94CB061D2D8A819B8147
:100EB000039781F41130A9F5D701ED91FC911197B9
:100EC000808191818D939C93C7010E94CB061D2D3B
:100ED00028C0102F888199818130910579F41130D3
:100EE00049F6D701ED91FC911197808591858D93FD
:100EF0009C93C7010E94CB061D2DBCCF892B09F006
:100F0000B9CF113009F0B6CFD701ED91FC9111970F
:100F1000868197818D939C93C7010E94CB061D2DDE
:100F2000A9CF888199818130910541F7A3CFFC0138
:100F3000758364836115710521F082819381892B0A
:100F400069F47183608373836283DB0111967C9300
:100F50006E9313967C936E9312970895DB016D93B5
:100F60007C93A281B38113967C936E9312978281B6
:100F70009381FB01918380830895FC018285938591
:100F8000009721F0A485B585109769F4738762876F
:100F900075876487DB0111967C936E9313967C931F
:100FA0006E93129708956D937C9375876487A285DD
:100FB000B38513967C936E931297DB011A968D91ED
:100FC0009C911B97918380830895CF93DF93CDB736
:100FD000DEB7C859D1090FB6F894DEBF0FBECDBF3A
:100FE00083EB91E09A8B898B188E1F8A1A8E198E4B
:100FF00088EB91E098A38F8F1EA21DA218A61FA2B6
:1010000081EC91E09EA78DA71CAA1BAA1EAA1DAA6F
:101010008BEC91E09CAF8BAF23961FAE1EAE239757
:1010200025961FAE1EAE2597BE01635F7F4FCE0192
:1010300007960E949707BE01655E7F4FCE01079617
:101040000E949707BE01675D7F4FCE0107960E9401
:101050009707BE01695C7F4FCE0107960E949707F4
:1010600087ED91E02B969FAF8EAF2B9761961FAEC9
:101070001EAE619763961FAE1EAE639780EE91E041
:1010800069969FAF8EAF69976F961FAE1EAE6F9732
:10109000A1961FAE1EAEA19782EF91E0A7969FAFDB
:1010A0008EAFA797AD961FAE1EAEAD97AF961FAE93
:1010B0001EAEAF978EEF91E0E5969FAF8EAFE597AE
:1010C000EB961FAE1EAEEB97ED961FAE1EAEED97E4
:1010D00089E092E0CF57DF4F99838883C158D04091
:1010E000C957DF4F19821882C758D040C757DF4F02
:1010F00019821882C958D04085E192E0C157DF4F6C
:1011000099838883CF58D040CB56DF4F19821882FD
:10111000C559D040C956DF4F19821882C759D040EF
:10112000BE0161597F4FCE014B960E94BD07BE01A3
:1011300065577F4FCE014B960E94BD07BE01635895
:101140007F4FCE014B960E94BD07BE016B5B7F4F68
:10115000CE01C7960E94BD07BE016F597F4FCE01D9
:10116000C7960E94BD07BE016D5A7F4FCE01C7963C
:101170000E94BD0786E0FE013796DE0111960190C0
:101180000D928A95E1F729813A814B815C816D81CD
:101190007E8180E090E0C856DF4F0FB6F894DEBF46
:1011A0000FBECDBFDF91CF91089587B3806B87BB12
:1011B000C49A81E58DB908958FB9779BFECF0895C4
:1011C0008AEA0E94DC088FB10895882321F08130DB
:1011D00019F4C49A0895C498089580E00E94E5081F
:1011E00080EC0E94DC0881E00E94E5080895CF931E
:1011F000DF93D82FC62F80E00E94E50882E00E948E
:10120000DC088D2F0E94DC088C2F0E94DC0881E016
:101210000E94E508DF91CF910895CF93C82F80E019
:101220000E94E50883E00E94DC088C2F0E94DC0805
:101230000E94E008C82F81E00E94E5088C2FCF9122
:101240000895CF93C82F80E00E94E508C13051F087
:1012500028F0C23059F0C33069F00FC081E80E9415
:10126000DC080BC082E80E94DC0807C084E80E940A
:10127000DC0803C087E80E94DC0881E00E94E508E2
:10128000CF9108951F93CF93DF93182FD62FC42F9C
:1012900080E00E94E50885E00E94DC08812F0E9422
:1012A000DC088D2F0E94DC088C2F0E94DC0881E076
:1012B0000E94E508DF91CF911F9108950E94D50803
:1012C0000E94ED088EE00E940D09807E803831F08A
:1012D0008CE192E00E94390C81E0089541E061E0E8
:1012E0008BE20E94420940E061E08CE20E944209E8
:1012F0000895CF9380E00E94E50880EA0E94DC0810
:101300000E94E008C82F80E00E94E5088C2FCF9152
:1013100008950E945E0963E08AE20E94F70861EB8B
:1013200089E20E94F70865E088E20E94F70840E041
:1013300060EE8FE00E9442098EE00E940D09807EDF
:1013400021F08EE492E00E94390C0895CF92DF9252
:10135000EF92FF921F93CF93DF936C0160E081E3E4
:101360000E94F708F60160817181660F771F629510
:101370007295707F7627607F762782E30E94F70858
:10138000F601628185E30E94F708F60182818823D5
:10139000A9F07601F3E0EF0EF11C16E3C0E0D0E017
:1013A000F70161917F01812F0E94F70821961F5F4D
:1013B000F601828190E0C817D90794F380E090E0AD
:1013C0000E942109DF91CF911F91FF90EF90DF9054
:1013D000CF900895CF92DF92EF92FF921F93CF9319
:1013E000DF936C0181E60E940D09C82F82E60E94FE
:1013F0000D092C2FCC0F330B8D5F02C0359527952F
:101400008A95E2F735952795359527953595279552
:101410003595279535952795F6013183208385E607
:101420000E940D09F60182838823A9F07601F3E07A
:10143000EF0EF11C16E6C0E0D0E0812F0E940D09EE
:10144000F70181937F0121961F5FF601828190E071
:10145000C817D90794F340E061E08CE20E9442098A
:10146000DF91CF911F91FF90EF90DF90CF90089583
:10147000CF92DF92EF92FF920F931F93CF93DF9360
:101480006C01FC0181818F9380818F9389E792E0C9
:101490009F938F930E94230CF60182810F900F90EF
:1014A0000F900F90882301F17601F3E0EF0EF11C0D
:1014B000C0E0D0E00EE712E0F70181917F01282F14
:1014C000082E000C330B3F938F931F930F930E94B2
:1014D000230C2196F601828190E00F900F900F90DF
:1014E0000F90C817D90744F3DF91CF911F910F9147
:1014F000FF90EF90DF90CF9008958A98F8948BB783
:1015000080648BBF85B7826085BF85B78E7F85BFBE
:10151000789408951F920F920FB60F9211242F9373
:101520003F934F935F936F937F938F939F93AF936B
:10153000BF93EF93FF93CF93DF93CDB7DEB72B9796
:10154000DEBFCDBFCE0101960E94EA09CE01019611
:101550000E94380A2B960FB6F894DEBF0FBECDBF9F
:10156000DF91CF91FF91EF91BF91AF919F918F91BB
:101570007F916F915F914F913F912F910F900FBE8F
:101580000F901F9018951F920F920FB60F92112473
:101590000F900FBE0F901F901895CF93DF93DC0133
:1015A000EB019A81992309F444C0E881F0E0E90154
:1015B0008881E81BF109CF0122F4882799278E1B27
:1015C0009F0B0B97C4F5FB01618170E0E9018981F4
:1015D0009B01281B3109C901992324F488279927E5
:1015E000821B930B8536910544F515968C911597C2
:1015F00090E0FA012581821B91099C0122F42227A7
:101600003327281B390B26303105CCF414968C91E6
:1016100090E0EA012C81821B91099C0122F422278F
:101620003327281B390B81E0263031054CF480E04C
:1016300007C081E005C081E003C081E001C081E016
:10164000DF91CF910895AF92BF92CF92DF92EF9248
:10165000FF920F931F93CF93DF93CDB7DEB72B97F6
:101660000FB6F894DEBF0FBECDBF7C018B015A01CF
:1016700069010E947704C8010E94B504C8010E9454
:101680000D059601A501B801C7010E94CD0A882366
:1016900091F082E090E09A83898383E08B83F70165
:1016A00084818C83F80180818D8382818E83CE0139
:1016B00001960E94A609F7018481F5018483F70150
:1016C0008581F5018583F8018081F6018083F80129
:1016D0008181F60181832B960FB6F894DEBF0FBE91
:1016E000CDBFDF91CF911F910F91FF90EF90DF90D1
:1016F000CF90BF90AF9008958F929F92AF92BF927C
:10170000CF92DF92EF92FF92CF93DF93EC0168814B
:1017100079818A819B81611571058105910521F48B
:1017200064E279ED8BE597E02DE133EF41E050E0A5
:101730000E943E1049015A019B01AC01A7EAB1E4A5
:101740000E945D106B017C01ACEEB4EFA501940129
:101750000E946B10DC01CB018C0D9D1DAE1DBF1DC9
:10176000B7FF03C00197A109B04888839983AA8372
:10177000BB839F77DF91CF91FF90EF90DF90CF9069
:10178000BF90AF909F908F9008950E947C0B08951A
:1017900084E091E00E947C0B0895A0E0B0E080938B
:1017A000040190930501A0930601B09307010895E9
:1017B0000F931F93CF93DF93009731F46115710559
:1017C00019F480E090E03AC08B01EC016EE070E02B
:1017D00081E090E00E944A0EFC01892B91F380E8A1
:1017E00083830115110571F01387028781E88383D4
:1017F0008091840290918502892B21F4F0938502D7
:10180000E09384022097C9F0D187C08783818260EA
:1018100083838091860290918702892B71F4F093E3
:101820008702E09386028091880290918902892B39
:1018300021F4F0938902E0938802CF01DF91CF91E8
:101840001F910F910895A0E0B0E0E9E2FCE00C9454
:101850008010AE014B5F5F4FFA0161917191AF0152
:1018600080918602909187020E94690CE2E00C94BC
:101870009C100F931F93CF93DF93E0918602F0911A
:101880008702238121FF1BC08C01D0E0C0E0F8015A
:1018900081918F016091860270918702DB01189619
:1018A000ED91FC911997882331F00995892B79F3F3
:1018B000DFEFCFEFECCF8AE00995892B19F08FEF9E
:1018C0009FEF02C08D2F9C2FDF91CF911F910F9121
:1018D0000895ABE0B0E0EFE6FCE00C9470106C0112
:1018E0007B018A01FC0117821682838181FFCCC1B2
:1018F000CE0101963C01F6019381F70193FD85919C
:1019000093FF81917F01882309F4BAC1853239F4AC
:1019100093FD859193FF81917F01853229F4B60172
:1019200090E00E94A40FE7CF912C212C312CFFE1F5
:10193000F315D8F08B3279F038F4803279F08332B5
:10194000A1F4232D20611DC08D3261F0803369F434
:10195000232D216016C0832D8260382EE32DE46094
:101960003E2E2AC0F32DF8601DC037FC2DC020ED9F
:10197000280F2A3040F08E32B9F436FC81C1232D75
:101980002064322E19C036FE06C08AE0989E200DD3
:101990001124922E11C0EAE02E9E200D1124222E39
:1019A000F32DF0623F2E08C08C3621F4832D806821
:1019B000382E02C0883641F4F70193FD859193FFDC
:1019C00081917F018111B3CF982F9F7D95549330E2
:1019D00028F40C5F1F4F9FE399830DC0833631F0CD
:1019E000833771F0833509F059C021C0F801808137
:1019F00089830E5F1F4F88248394912C530113C059
:101A00002801F2E04F0E511CF801A080B18036FE93
:101A100003C0692D70E002C06FEF7FEFC5010E9427
:101A2000990F4C018201F32DFF773F2E16C028013C
:101A300022E0420E511CF801A080B18036FE03C0A6
:101A4000692D70E002C06FEF7FEFC5010E94870F24
:101A50004C01F32DF0683F2E820133FC1BC0822D18
:101A600090E088169906B0F4B60180E290E00E94FA
:101A7000A40F2A94F4CFF50137FC859137FE8191AC
:101A80005F01B60190E00E94A40F21102A9421E08A
:101A9000821A91088114910471F7E8C0843611F01C
:101AA000893641F5F80137FE07C060817181828176
:101AB00093810C5F1F4F08C060817181072E000C5D
:101AC000880B990B0E5F1F4FF32DFF763F2E97FF6C
:101AD00009C090958095709561957F4F8F4F9F4F6E
:101AE000F0683F2E2AE030E0A3010E94E00F882E2C
:101AF000861845C0853731F4232D2F7EB22E2AE07B
:101B000030E025C0932D997FB92E8F36C1F018F49F
:101B1000883579F0B5C0803719F0883721F0B0C02A
:101B2000E92FE061BE2EB4FE0DC0FB2DF460BF2E88
:101B300009C034FE0AC0292F2660B22E06C028E054
:101B400030E005C020E130E002C020E132E0F801E1
:101B5000B7FE07C060817181828193810C5F1F4F46
:101B600006C06081718180E090E00E5F1F4FA3018D
:101B70000E94E00F882E8618FB2DFF773F2E36FE41
:101B80000DC0232D2E7FA22E891458F434FE0BC0D5
:101B900032FC09C0832D8E7EA82E05C0B82CA32C44
:101BA00003C0B82C01C0B92CA4FE0FC0FE01E80D83
:101BB000F11D8081803321F49A2D997EA92E09C0D0
:101BC000A2FE06C0B394B39404C08A2D867809F0AF
:101BD000B394A3FC11C0A0FE06C0B21488F4280C74
:101BE000922C9B180EC0B21460F4B60180E290E013
:101BF0000E94A40FB394F7CFB21418F42B1802C0AC
:101C0000982C212CA4FE10C0B60180E390E00E9425
:101C1000A40FA2FE17C0A1FC03C088E790E002C099
:101C200088E590E0B6010CC08A2D867859F0A1FEB7
:101C300002C08BE201C080E2A7FC8DE2B60190E019
:101C40000E94A40F891438F4B60180E390E00E944A
:101C5000A40F9A94F7CF8A94F301E80DF11D8081C7
:101C6000B60190E00E94A40F8110F5CF222009F464
:101C700042CEB60180E290E00E94A40F2A94F6CFF3
:101C8000F6018681978102C08FEF9FEF2B96E2E1EC
:101C90000C948C100F931F93CF93DF93869F80013A
:101CA000879F100D969F100D1124C8010E94660E8B
:101CB000EC01009729F0A80160E070E00E94920F0B
:101CC000CE01DF91CF911F910F9108950F931F9334
:101CD000CF93DF938230910510F482E090E0E091A1
:101CE0008C02F0918D0220E030E0A0E0B0E030976F
:101CF00019F1408151810281138148175907C8F0B9
:101D00008417950769F4109731F012960C93129787
:101D100013961C9327C000938C0210938D0222C04F
:101D20002115310519F04217530718F49A01BD0126
:101D3000EF01DF01F801DBCF21153105F9F0281B98
:101D4000390B2430310580F48A819B81611571053E
:101D500021F0FB019383828304C090938D028093D2
:101D60008C02FE01329644C0FE01E20FF31F819304
:101D7000919322503109398328833AC020918A02F5
:101D800030918B02232B41F420910A0130910B01F9
:101D900030938B0220938A0220910801309109012F
:101DA0002115310541F42DB73EB740910C015091FA
:101DB0000D01241B350BE0918A02F0918B02E21792
:101DC000F307A0F42E1B3F0B2817390778F0AC015E
:101DD0004E5F5F4F2417350748F04E0F5F1F50933B
:101DE0008B0240938A028193919302C0E0E0F0E07D
:101DF000CF01DF91CF911F910F910895CF93DF9382
:101E0000009709F481C0FC01329713821282A091DD
:101E10008C02B0918D02109781F420813181820F64
:101E2000931F20918A0230918B022817390751F5B0
:101E3000F0938B02E0938A0267C0ED0120E030E06E
:101E4000CE17DF0740F44A815B819E0141155105A1
:101E5000F1F0EA01F5CFD383C28340815181840F31
:101E6000951FC817D90759F488819981840F951F48
:101E70000296918380838A819B819383828321153B
:101E8000310529F4F0938D02E0938C023DC0E90105
:101E9000FB83EA8349915991C40FD51FEC17FD07C5
:101EA00061F480819181840F951F0296E9019983E5
:101EB0008883828193819B838A83E0E0F0E012969D
:101EC0008D919C911397009719F0FD01DC01F7CFDC
:101ED0008D919C9111979D012E5F3F4F820F931F13
:101EE00020918A0230918B022817390769F43097C4
:101EF00029F410928D0210928C0202C01382128279
:101F0000B0938B02A0938A02DF91CF910895FC01D8
:101F10000590615070400110D8F7809590958E0F14
:101F20009F1F0895DC0101C06D9341505040E0F7C0
:101F30000895FC016150704001900110D8F7809520
:101F400090958E0F9F1F08950F931F93CF93DF934C
:101F5000FB01238121FD03C08FEF9FEF2CC022FFE7
:101F600016C046815781248135814217530744F4B6
:101F7000A081B1819D012F5F3F4F318320838C93DE
:101F8000268137812F5F3F4F3783268314C08B0113
:101F9000EC01FB010084F185E02D0995892BE1F628
:101FA000D80116968D919C911797019617969C9340
:101FB0008E931697CE01DF91CF911F910F910895C7
:101FC000FA01AA27283051F1203181F1E8946F936A
:101FD0006E7F6E5F7F4F8F4F9F4FAF4FB1E03ED010
:101FE000B4E03CD0670F781F891F9A1FA11D680FAE
:101FF000791F8A1F911DA11D6A0F711D811D911DE1
:10200000A11D20D009F468943F912AE0269F112455
:102010003019305D3193DEF6CF010895462F4770B9
:10202000405D4193B3E00FD0C9F7F6CF462F4F7014
:10203000405D4A3318F0495D31FD4052419302D072
:10204000A9F7EACFB4E0A695979587957795679518
:10205000BA95C9F700976105710508959B01AC0118
:102060000A2E06945795479537952795BA95C9F73F
:10207000620F731F841F951FA01D0895052E97FBE7
:102080001EF400940E94551057FD07D00E94A7101F
:1020900007FC03D04EF40C945510509540953095A4
:1020A00021953F4F4F4F5F4F0895909580957095C4
:1020B00061957F4F8F4F9F4F08950E94C910A59F34
:1020C000900DB49F900DA49F800D911D1124089533
:1020D000B7FF0C945D100E945D10821B930B089556
:1020E0002F923F924F925F926F927F928F929F9228
:1020F000AF92BF92CF92DF92EF92FF920F931F9316
:10210000CF93DF93CDB7DEB7CA1BDB0B0FB6F894C6
:10211000DEBF0FBECDBF09942A88398848885F8406
:102120006E847D848C849B84AA84B984C884DF8077
:10213000EE80FD800C811B81AA81B981CE0FD11D5B
:102140000FB6F894DEBF0FBECDBFED010895A1E23A
:102150001A2EAA1BBB1BFD010DC0AA1FBB1FEE1F21
:10216000FF1FA217B307E407F50720F0A21BB30B6C
:10217000E40BF50B661F771F881F991F1A9469F7E8
:1021800060957095809590959B01AC01BD01CF0144
:102190000895A29FB001B39FC001A39F700D811D40
:1021A0001124911DB29F700D811D1124911D089560
:0421B000F894FFCFD1
:1021B400001200100100000000008E0220002564BF
:1021C4002025642025642025642025640A0D0053FD
:1021D40074617274696E67205352414D2074657343
:1021E400742E2E2E0A0D005352414D2074657374C3
:1021F40020636F6D706C6574656420776974682002
:102204000A0D253464206572726F727320696E2022
:10221400777269746520706861736520616E6420EB
:102224000A0D253464206572726F727320696E2002
:1022340072657472696576616C2070686173650A91
:102244000D002564200A0D004D454E553A002D2DF4
:102254002D2D2D2D2D2D2D2D2D2D2D2D2D2D005EA6
:1022640000600047414D450053455454494E47537F
:10227400004849474853434F524500504C41592068
:102284004120534F4E47004F4C45204252554D007C
:1022940042414520424145204C494C4C45204C414B
:1022A4004D0054454E4B4520534A41454C00425243
:1022B400494748544E4553530044494646494355BB
:1022C4004C49545900564F4C554D45004D435032DE
:1022D400353135206973204E4F5420696E20636F69
:1022E4006E66696775726174696F6E206D6F64657F
:1022F40020616674657220726573657421004D43B4
:102304005032353135206973204E4F5420696E2088
:102314006E6F726D616C206D6F64652061667465AB
:102324007220726573657421002564200A00256398
:04233400200A00007B
:00000001FF
