:100000000C9460030C94C00C0C947D030C947D0341
:100010000C947D030C947D030C947D030C947D0360
:100020000C947D030C947D030C947D030C947D0350
:100030000C947D030C947D030C947D030C947D0340
:100040000C947D030C94740C0C947D030C947D0330
:100050000C947D030C947D030C947D030C947D0320
:100060000C947D030C947D030C947D030C947D0310
:1000700000000000005C00000C000C007C287C28C4
:1000800058DC68002410480028542840000C000068
:10009000007884008478000054385400107C1000EC
:1000A00080400000101010000040000060100C00A4
:1000B00038543800487C40004864580044542C00B0
:1000C0001C107C005C5424003854240064140C0080
:1000D00068542C0048543800004800008048000054
:1000E0001028440028282800442810000454080040
:1000F00038445C00781478007C5428003844280088
:100100007C4438007C5444007C140400384474005F
:100110007C107C00447C440020403C007C106C003F
:100120007C4040007C187C0078103C00384438004B
:100130007C1408003844B8007C146800485424003B
:10014000047C04007C407C003C603C007C307C00F3
:100150006C106C000C700C0064544C00007C44006B
:100160000C106000447C00000804080080808000BF
:1001700000040800304878007C48300030484800CF
:1001800030487C00306850001078140090A8780047
:100190007C08700050744000808074007C106800FF
:1001A000447C4000781078007808700030483000B7
:1001B000F82810003048F80078100800505828003F
:1001C000083C4800384078003840380078207800F3
:1001D0004830480098A0780048685800107884009B
:1001E000007C00008478100008040804000000006F
:1001F0000000005F00000007000700147F147F1458
:10020000242A7F2A1223130864623649552250009B
:1002100005030000001C2241000041221C00082AA6
:100220001C2A0808083E080800503000000808088A
:100230000808006060000020100804023E51494593
:100240003E00427F400042615149462141454B31C9
:100250001814127F1027454545393C4A4949300159
:10026000710905033649494936064949291E0036B0
:100270003600000056360000000814224114141401
:10028000141441221408000201510906324979412F
:100290003E7E1111117E7F494949363E414141223E
:1002A0007F4141221C7F494949417F090901013EA3
:1002B000414151327F0808087F00417F41002040C2
:1002C000413F017F081422417F404040407F0204AB
:1002D000027F7F0408107F3E4141413E7F090909AA
:1002E000063E4151215E7F09192946464949493157
:1002F00001017F01013F4040403F1F2040201F7F00
:100300002018207F631408146303047804036151E8
:1003100049454300007F4141020408102041417FCC
:100320000000040201020440404040400001020479
:100330000020545454787F4844443838444444207E
:10034000384444487F3854545418087E0901020840
:100350001454543C7F0804047800447D400020403D
:10036000443D00007F10284400417F40007C041879
:1003700004787C0804047838444444387C14141409
:1003800008081414187C7C080404084854545420A9
:10039000043F4440203C4040207C1C2040201C3C2A
:1003A0004030403C44281028440C5050503C446499
:1003B000544C44000836410000007F0000004136E4
:1003C000080002010302010000000000000000001C
:1003D000065F5F0600000000070700070700001423
:1003E0007F7F147F7F1400242E6B6B3A120000462F
:1003F0006630180C666200307A4F5D377A48000428
:1004000007030000000000001C3E634100000000E4
:1004100041633E1C000000082A3E1C1C3E2A0808BE
:10042000083E3E0808000000A0E060000000000850
:100430000808080808000000006060000000006074
:1004400030180C060301003E7F594D7F3E000042EC
:10045000427F7F40400000627359496F660000226E
:100460006349497F360000181C16137F7F10002750
:100470006745457D3900003C7E4B497930000003DB
:100480006371190F070000367F49497F3600000667
:100490004F49693F1E000000006C6C000000000026
:1004A000A0EC6C00000000081C3663410000001442
:1004B00014141414140000004163361C08000002D8
:1004C0000351590F0600003E7F415D5D1F1E007CF9
:1004D0007E13137E7C0000417F7F49497F36001CDC
:1004E0003E634141632200417F7F41637F1C0041A5
:1004F0007F7F495D416300417F7F491D0103001CEF
:100500003E6341517372007F7F08087F7F000000C7
:10051000417F7F41000000307040417F3F0100413A
:100520007F7F081C776300417F7F41406070007FC0
:100530007F060C067F7F007F7F060C187F7F001CE4
:100540003E6341633E1C00417F7F49090F06001E48
:100550003F21717F5E0000417F7F19396F46002681
:10056000674D597B32000003417F7F410300007FCC
:100570007F40407F7F00001F3F60603F1F00007F83
:100580007F3018307F7F0063771C081C776300077B
:100590004F78784F0700006773594D47637100002B
:1005A0007F7F41410000000103060C18306000000D
:1005B00041417F7F000000080C0603060C08008004
:1005C000808080808080800818306030180800208B
:1005D0007454543C784000413F7F44447C38003898
:1005E0007C44446C280000307848493F7F40003804
:1005F0007C54545C180000487E7F49030200009838
:10060000BCA4A4F87C0400417F7F08047C7800002F
:10061000447D7D4000000040C484FD7D0000004119
:100620007F7F10386C440000417F7F400000007CD9
:100630007C0C180C7C78007C7C04047C78000038EE
:100640007C44447C38000084FCF8A4243C18001846
:100650003C24A4F8FC8400447C78441C1800004826
:100660005C54547424000000043E7F442400003C89
:100670007C40403C7C40001C3C60603C1C00003CDA
:100680007C6030607C3C00446C3810386C44009CCA
:10069000BCA0A0FC7C00004C64745C4C64000008AE
:1006A000083E7741410000000000777700000041DC
:1006B00041773E0808000002030103020301000025
:1006C00011241FBECFEFD4E0DEBFCDBF12E0A0E00B
:1006D000B1E0ECEBF4E202C005900D92A638B10750
:1006E000D9F722E0A6E8B2E001C01D92AD39B20709
:1006F000E1F70E947F030C945C120C946E0B0E9435
:10070000A9030E9407048FE190E00E94A0030E94C9
:100710006E0A0E94610B0E94100880E090E008952C
:100720005D9BFECF8CB908955F9BFECF8CB1089581
:10073000599890BD89B988E18AB98EE880BD08953D
:100740000E94980364E973E080E993E00E945C0DE5
:10075000089585B7806885BF80B7806280BF08959F
:10076000FB01F85E80830895985EFC018081089506
:10077000EF92FF920F931F93CF93DF938EE091E060
:100780009F938F930E94A70D0E944C0D7C010E94A5
:10079000510D0F900F90C0E0D8E100E010E00E94F2
:1007A0004C0D88839881981711F00F5F1F4F219689
:1007B000C11580E2D80799F7C7010E94510DC0E02A
:1007C000D8E1E12CF12C0E944C0D9881981719F07A
:1007D0008FEFE81AF80A2196C11580E2D80799F739
:1007E000FF92EF921F930F9386E291E09F938F9376
:1007F0000E94A70D0F900F900F900F900F900F90E9
:10080000DF91CF911F910F91FF90EF900895B89ACB
:1008100083B7886083BF83B78F7B83BF83B78F7DA8
:1008200083BF83B7806183BF83B78B7F83BF83B769
:100830008D7F83BF83B7816083BF11BE089580938E
:1008400000140895809100140895CF93DF93EC0174
:1008500082E80E941F0482E08A95F1F700000E945E
:100860002204898382E08A95F1F7000083E80E94E0
:100870001F0482E08A95F1F700000E942204888319
:1008800082E08A95F1F70000DF91CF910895FC0195
:1008900084E090E0938382839583848380E88083DF
:1008A00081830895CF93DF93EC0182E80E941F04B7
:1008B00082E08A95F1F700000E942204282F30E0A0
:1008C0009981291B3109A90122F444275527421B8C
:1008D000530B4A3151050CF0898382E08A95F1F778
:1008E000000083E80E941F0482E08A95F1F700006F
:1008F0000E942204282F30E09881291B3109A90188
:1009000022F444275527421B530B4A3151050CF062
:10091000888382E08A95F1F70000DF91CF910895F6
:10092000CF93DF93EC0181E80E941F0482E08A9557
:10093000F1F700000E942204888382E08A95F1F793
:10094000000080E80E941F0482E08A95F1F7000011
:100950000E942204898382E08A95F1F70000DF91EA
:10096000CF9108958B9820B32870FC0122830895BD
:10097000FC018081813F20F021E030E0338322833D
:100980008A3010F41382128285568B3320F484E06F
:1009900090E0938382838181813F20F022E030E0E8
:1009A000358324838A3020F423E030E035832483A8
:1009B00085568B3320F484E090E0958384830895FA
:1009C000E0910201F09103018EEA8083E09102013F
:1009D000F091030181EA8083E0910201F09103012B
:1009E0008AED8083E0910201F091030182E180832E
:1009F000E0910201F091030188EC8083E091020113
:100A0000F091030188EA8083E0910201F0910301F3
:100A10008FE38083E0910201F091030185ED8083F3
:100A2000E0910201F091030180E88083E0910201EE
:100A3000F091030181E88083E0910201F0910301CC
:100A400080E58083E0910201F091030189ED8083CC
:100A5000E0910201F091030181E28083E0910201C3
:100A6000F091030180E28083E0910201F0910301A3
:100A70001082E0910201F09103018BED8083E091FF
:100A80000201F091030180E38083E0910201F09183
:100A900003018DEA8083E0910201F091030110824D
:100AA000E0910201F091030184EA8083E091020168
:100AB000F091030186EA8083E0910201F091030145
:100AC0008FEA80830895E0910201F0910301808311
:100AD0000895E0910001F091010180830895E09173
:100AE0000201F0910301982F9F709F5F9083E09126
:100AF0000201F091030182958F70805F80830895D9
:100B0000E0910201F0910301805580830895CF9315
:100B1000DF93C82F862FD42F0E9480058D2F0E942F
:100B20006F058C2FCC0F990B8097880F991F880F1A
:100B3000991F880F991FFC01E953FC4F81539C4F6B
:100B40002491A0910001B09101012C933196E817F6
:100B5000F907B1F7DF91CF910895CF93DF93C82FB5
:100B6000862FD42F0E9480058D2F0E946F058C2F19
:100B7000CC0F990B9C01220F331F220F331F820FC2
:100B8000931F20E030E0805A9109FC01E20FF31F2F
:100B9000E451FE4FE491A0910001B0910101EC936A
:100BA0002F5F3F4F2530310581F7DF91CF910895B9
:100BB000CF93DF93C82F862FD42F0E9480058D2FCF
:100BC0000E946F058C2FCC0F990B8097880F991F6F
:100BD000880F991FFC01E059FF4F8C589F4F2491BB
:100BE000A0910001B09101012C933196E817F9070B
:100BF000B1F7DF91CF9108950E94800580E00E94B7
:100C00006F0580E890E0E0910001F0910101108211
:100C10000197C9F70895CF93C0E08C2F0E948005FB
:100C200080E00E946F0580E890E0E0910001F09183
:100C3000010110820197C9F7CF5FC83071F7CF91DA
:100C400008950F931F93CF93DF93FC01D62FC42FEA
:100C5000253049F0283019F02430B1F508C08081E2
:100C6000811109C031C08081811113C02DC08081E4
:100C700081111DC029C08F010F5F1F4F4C2F6D2F99
:100C80000E948705C65FF80181918F018111F6CF1F
:100C90001BC08F010F5F1F4F4C2F6D2F0E94AD05A2
:100CA000C95FF80181918F018111F6CF0DC08F01CD
:100CB0000F5F1F4F4C2F6D2F0E94D805CA5FF801A0
:100CC00081918F018111F6CFDF91CF911F910F910B
:100CD0000895FF920F931F93CF93DF938C01C62F3C
:100CE000D42FF22E862F0E94FC052F2D4D2F6C2F16
:100CF000C8010E942106DF91CF911F910F91FF90B3
:100D00000895CF93DF93EC010E94E0040E940B064C
:100D10001B821A821D821C82DF91CF910895FC01F3
:100D20001182108213821282758364831782168265
:100D300011861086138612861586148617861686E7
:100D40000895CF93DF93EC01E881F9810280F3816C
:100D5000E02D24E030E044E150E062E070E0848186
:100D600095810E946906E881F98128E030E044E13C
:100D700050E064E070E0848195810E946906E8811A
:100D8000F9810190F081E02D24E030E044E150E071
:100D900066E070E0848195810E946906DF91CF91C1
:100DA0000895CF93DF93EC0125E030E040E050E080
:100DB00060E070E081E891E00E94210625E030E0EB
:100DC00040E050E061E070E087E891E00E94210699
:100DD000E881F9810280F381E02D24E030E044E1F4
:100DE00050E062E070E0848195810E94210628E055
:100DF00030E044E050E063E070E088E991E00E9478
:100E00002106E881F98128E030E044E150E064E027
:100E100070E0848195810E94210628E030E044E062
:100E200050E065E070E08AE991E00E942106E881E7
:100E3000F9810190F081E02D24E030E044E150E0C0
:100E400066E070E0848195810E942106DF91CF9158
:100E50000895FC01A481B581109799F48281938152
:100E6000892B79F4758364837383628371836083D0
:100E7000DB0111967C936E9313967C936E9312977D
:100E800008956D937C9384819581DB0113969C93E7
:100E90008E93129775836483A281B38113967C939A
:100EA0006E93129782819381FB01918380830895D1
:100EB000CF93DF93FC01DB0117969C938E931697DB
:100EC00082859385892B21F0C485D585209799F457
:100ED000B587A487B387A287B187A0870B2E119609
:100EE0000C921197AC930A2E1B2E13961C920E9205
:100EF0001124129712C0798368838485958513968F
:100F00009C938E93129775876487C285D3857B8364
:100F10006A83828593858D939C93DF91CF91089509
:100F2000FC017787668708950E940B0628E030E071
:100F30004AE050E063E070E08CE991E00E94210615
:100F400008958C01EB01F12CEE24E394D12CCE0119
:100F50000E942504CE010E94B8048C819D818430BA
:100F6000910529F18230910581F421E0F21220C02F
:100F7000D801ED91FC911197828193818D939C937F
:100F8000C8010E94A106FD2C13C0039789F4B1E0AB
:100F9000FB120EC0D801ED91FC91119780819181D7
:100FA0008D939C93C8010E94A106FD2C01C0FE2CCC
:100FB000D801ED91FC9180859185009721F42685DB
:100FC0003785232B21F22A813B812130310509F01D
:100FD000BECFB1E0FB12BBCF0684F785E02D309782
:100FE000B9F009950E9494078A819B81892B51F061
:100FF000CE010E942504CE010E94B8048A819B8103
:10100000892BB1F70E940B06C8010E94D10606C0C9
:10101000F80191838083C8010E94A106FD2C97CF1F
:10102000CF93DF93CDB7DEB7CC5AD1090FB6F89482
:10103000DEBF0FBECDBF0E940B06CE0101960E94FF
:10104000810618861F821A86198688EA91E09C8795
:101050008B871E861D86188A1F861A8A198A1C8A03
:101060001B8A1E8A1D8A188E1F8A1A8E198E82EB81
:1010700091E09C8F8B8F1E8E1D8E18A21F8E1AA240
:1010800019A21CA21BA21EA21DA218A61FA21AA66C
:1010900019A68BEB91E09CA78BA71EA61DA618AAEC
:1010A0001FA61AAA19AA1CAA1BAA1EAA1DAA18AE14
:1010B0001FAA1AAE19AE85EC91E09CAF8BAF1EAEA5
:1010C0001DAE21961FAE1EAE219723961FAE1EAEFB
:1010D000239725961FAE1EAE259727961FAE1EAEF0
:1010E0002797BE01695F7F4FCE0101960E942907B5
:1010F000BE01695E7F4FCE0101960E942907BE01A5
:10110000695D7F4FCE0101960E942907BE01695C8F
:101110007F4FCE0101960E94290729961FAE1EAE71
:1011200029972B961FAE1EAE2B9781ED91E02D9641
:101130009FAF8EAF2D972F961FAE1EAE2F97619645
:101140001FAE1EAE619763961FAE1EAE6397659687
:101150001FAE1EAE659767961FAE1EAE6797699667
:101160001FAE1EAE69976B961FAE1EAE6B978AEDD3
:1011700091E06D969FAF8EAF6D976F961FAE1EAECE
:101180006F97A1961FAE1EAEA197A3961FAE1EAE7F
:10119000A397A5961FAE1EAEA597A7961FAE1EAE2F
:1011A000A797A9961FAE1EAEA997AB961FAE1EAE0F
:1011B000AB978EED91E0AD969FAF8EAFAD97AF96AA
:1011C0001FAE1EAEAF97E1961FAE1EAEE197E3963F
:1011D0001FAE1EAEE397E5961FAE1EAEE597E796EF
:1011E0001FAE1EAEE797E9961FAE1EAEE997EB96CF
:1011F0001FAE1EAEEB978AEE91E0ED969FAF8EAFDD
:10120000ED97EF961FAE1EAEEF97C158DF4F1982D4
:101210001882CF57D040CF57DF4F19821882C1585C
:10122000D040CD57DF4F19821882C358D040CB57DA
:10123000DF4F19821882C558D040C957DF4F198235
:101240001882C758D040C757DF4F19821882C95833
:10125000D04085EF91E0C557DF4F99838883CB5805
:10126000D040C357DF4F19821882CD58D040C157A4
:10127000DF4F19821882CF58D040CF56DF4F1982E6
:101280001882C159D040CD56DF4F19821882C359F8
:10129000D040CB56DF4F19821882C559D040C9566D
:1012A000DF4F19821882C759D040C756DF4F1982C5
:1012B0001882C959D04081E092E0C556DF4F99832A
:1012C0008883CB59D040C356DF4F19821882CD593D
:1012D000D040C156DF4F19821882CF59D040CF5528
:1012E000DF4F19821882C15AD040CD55DF4F198285
:1012F0001882C35AD040CB55DF4F19821882C55A85
:10130000D040BE0169587F4FCE0147960E945807D2
:10131000BE0169567F4FCE0147960E945807BE0115
:1013200069577F4FCE0147960E945807BE01695BFF
:101330007F4FCE01C7960E945807BE0169597F4F63
:10134000CE01C7960E945807BE01695A7F4FCE0151
:10135000C7960E9458078CE89CE09E8B8D8BCE012F
:1013600001960E94D106BE0169557F4FCE010196BC
:101370000E94A10787B3806B87BBC49A81E58DB9B2
:1013800008958FB9779BFECF08958AEA0E94C1091C
:101390008FB10895882321F0813019F4C49A0895FB
:1013A000C498089580E00E94CA0980EC0E94C10997
:1013B00081E00E94CA090895CF93DF93D82FC62FEA
:1013C00080E00E94CA0982E00E94C1098D2F0E941C
:1013D000C1098C2F0E94C10981E00E94CA09DF91D6
:1013E000CF910895CF93C82F80E00E94CA0983E06F
:1013F0000E94C1098C2F0E94C1090E94C509C82FF3
:1014000081E00E94CA098C2FCF910895CF93C82FF5
:1014100080E00E94CA09C13051F028F0C23059F072
:10142000C33069F00FC081E80E94C1090BC082E897
:101430000E94C10907C084E80E94C10903C087E86F
:101440000E94C10981E00E94CA09CF9108951F93AB
:10145000CF93DF93182FD62FC42F80E00E94CA09A4
:1014600085E00E94C109812F0E94C1098D2F0E9431
:10147000C1098C2F0E94C10981E00E94CA09DF9135
:10148000CF911F9108950E94BA090E94D2098EE05F
:101490000E94F209807E803831F088E092E00E945C
:1014A000BD0D81E0089541E061E08BE20E94270AD2
:1014B00040E061E08CE20E94270A0895CF9380E02B
:1014C0000E94CA0980EA0E94C1090E94C509C82F6A
:1014D00080E00E94CA098C2FCF9108950E94430A90
:1014E00063E08AE20E94DC0961EB89E20E94DC0988
:1014F00065E088E20E94DC0940E060EE8FE00E9437
:10150000270A8EE00E94F209807E21F08AE392E0B1
:101510000E94BD0D0895CF92DF92EF92FF921F932C
:10152000CF93DF936C0160E081E30E94DC09F60158
:1015300060817181660F771F62957295707F762743
:10154000607F762782E30E94DC09F601628185E3F1
:101550000E94DC09F60182818823A9F07601F3E07C
:10156000EF0EF11C16E3C0E0D0E0F70161917F01BE
:10157000812F0E94DC0921961F5FF601828190E095
:10158000C817D90794F380E00E94060ADF91CF9133
:101590001F91FF90EF90DF90CF900895CF92DF9250
:1015A000EF92FF921F93CF93DF936C0181E60E942D
:1015B000F209C82F82E60E94F2092C2FCC0F330BC0
:1015C0008D5F02C0359527958A95E2F73595279569
:1015D00035952795359527953595279535952795F3
:1015E000F6013183208385E60E94F209F6018283A9
:1015F0008823A9F07601F3E0EF0EF11C16E6C0E0B7
:10160000D0E0812F0E94F209F70181937F0121969A
:101610001F5FF601828190E0C817D90794F340E07C
:1016200061E08CE20E94270ADF91CF911F91FF9029
:10163000EF90DF90CF900895CF92DF92EF92FF92DC
:101640000F931F93CF93DF936C01FC0181818F93E4
:1016500080818F9385E692E09F938F930E94A70DE0
:10166000F60182810F900F900F900F90882301F167
:101670007601F3E0EF0EF11CC0E0D0E00AE612E0E4
:10168000F70181917F01282F082E000C330B3F9327
:101690008F931F930F930E94A70D2196F6018281CD
:1016A00090E00F900F900F900F90C817D90744F358
:1016B000DF91CF911F910F91FF90EF90DF90CF902E
:1016C00008958A98F8948BB780648BBF85B7826041
:1016D00085BF85B78E7F85BF789408951F920F923E
:1016E0000FB60F9211240F900FBE0F901F901895F8
:1016F000CF93DF93EC01FB019281992309F446C05B
:1017000080919202882311F131C0298130E0DA0101
:1017100011968C91281B3109B90122F4662777278D
:10172000621B730B663071057CF4288130E0DA01AE
:101730008C91281B3109A90122F444275527421B0B
:10174000530B463051055CF0992329F080919202A9
:10175000813009F4128281E0809392024DC0911190
:1017600003C01092920248C080E046C0608170E0E1
:10177000D9018C91681B7109DB01BB2324F4AA27D2
:10178000BB27A61BB70B1B978CF0E0CF608170E0E6
:10179000D9018C91681B7109DB01BB2324F4AA27B2
:1017A000BB27A61BB70B1B97B4F613C0618170E073
:1017B000D90111968C919B01281B3109B90122F4A2
:1017C00066277727621B730B6B3071050CF0BECF59
:1017D0009CCF618170E0D90111968C919B01281BEF
:1017E0003109B90122F466277727621B730B6B302E
:1017F00071050CF48ACFAFCFDF91CF910895AF92EE
:10180000BF92CF92DF92EF92FF920F931F93CF93ED
:10181000DF93CDB7DEB72B970FB6F894DEBF0FBEC0
:10182000CDBF7C018B015A0169010E945204C8019D
:101830000E949004C8010E94B2049601A501B8015B
:10184000C7010E94780B882309F1F80182811F9259
:101850008F938FE692E09F938F930E94A70D82E073
:1018600090E09A83898383E08B83F70180818C8366
:10187000F801808180958D8382818E83CE010196CF
:101880000E948B0A0F900F900F900F90F7018081AC
:10189000F5018083F7018181F5018183F801808161
:1018A000F6018083F8018181F60181832B960FB6C2
:1018B000F894DEBF0FBECDBFDF91CF911F910F9186
:1018C000FF90EF90DF90CF90BF90AF9008958FEF93
:1018D00087BB789482E089BF82EB82BF85E083BFBB
:1018E00008951092860208951F920F920FB60F92DC
:1018F00011248F9382EB82BF8F910F900FBE0F90B8
:101900001F9018950E940B0628E04AE063E085E7E7
:1019100092E00E9421060895CF93DF93CDB7DEB702
:1019200062970FB6F894DEBF0FBECDBF0E94820C47
:1019300010928602CE0101960E944704CE010796BE
:101940000E94470480918602813089F09E01205FC9
:101950003F4FAE01495F5F4FBE01635F7F4FCE01D6
:1019600001960E94FF0B80918602813079F7629682
:101970000FB6F894DEBF0FBECDBFDF91CF910895B3
:101980001F920F920FB60F9211242F933F934F93F4
:101990005F936F937F938F939F93AF93BF93EF93D7
:1019A000FF93CF93DF93CDB7DEB72B97DEBFCDBFCD
:1019B00080E892E09F938F930E94A70DCE0101963D
:1019C0000E94CE0A81E0809386020F900F902B96A2
:1019D0000FB6F894DEBF0FBECDBFDF91CF91FF9160
:1019E000EF91BF91AF919F918F917F916F915F9197
:1019F0004F913F912F910F900FBE0F901F90189510
:101A00008F929F92AF92BF92CF92DF92EF92FF920E
:101A1000CF93DF93EC01688179818A819B81611585
:101A200071058105910521F464E279ED8BE597E07C
:101A30002DE133EF41E050E00E94C21149015A010B
:101A40009B01AC01A7EAB1E40E94E1116B017C01AA
:101A5000ACEEB4EFA50194010E94EF11DC01CB01C3
:101A60008C0D9D1DAE1DBF1DB7FF03C00197A109C1
:101A7000B04888839983AA83BB839F77DF91CF91F6
:101A8000FF90EF90DF90CF90BF90AF909F908F909E
:101A900008950E94000D089584E091E00E94000DD9
:101AA0000895A0E0B0E08093040190930501A09315
:101AB0000601B093070108950F931F93CF93DF930F
:101AC000009731F46115710519F480E090E03AC097
:101AD0008B01EC016EE070E081E090E00E94CE0F9F
:101AE000FC01892B91F380E883830115110571F0C6
:101AF0001387028781E883838091930290919402F7
:101B0000892B21F4F0939402E09393022097C9F07B
:101B1000D187C08783818260838380919502909171
:101B20009602892B71F4F0939602E09395028091CE
:101B3000970290919802892B21F4F0939802E093F8
:101B40009702CF01DF91CF911F910F910895A0E0EF
:101B5000B0E0EDEAFDE00C940412AE014B5F5F4F84
:101B6000FA0161917191AF01809195029091960275
:101B70000E94ED0DE2E00C9420120F931F93CF937F
:101B8000DF93E0919502F0919602238121FF1BC023
:101B90008C01D0E0C0E0F80181918F016091950245
:101BA00070919602DB011896ED91FC9119978823AC
:101BB00031F00995892B79F3DFEFCFEFECCF8AE095
:101BC0000995892B19F08FEF9FEF02C08D2F9C2F65
:101BD000DF91CF911F910F910895ABE0B0E0E3EF5B
:101BE000FDE00C94F4116C017B018A01FC01178269
:101BF0001682838181FFCCC1CE0101963C01F601A2
:101C00009381F70193FD859193FF81917F01882353
:101C100009F4BAC1853239F493FD859193FF81911E
:101C20007F01853229F4B60190E00E942811E7CFA8
:101C3000912C212C312CFFE1F315D8F08B3279F067
:101C400038F4803279F08332A1F4232D20611DC055
:101C50008D3261F0803369F4232D216016C0832D0D
:101C60008260382EE32DE4603E2E2AC0F32DF8600A
:101C70001DC037FC2DC020ED280F2A3040F08E32D9
:101C8000B9F436FC81C1232D2064322E19C036FEF2
:101C900006C08AE0989E200D1124922E11C0EAE021
:101CA0002E9E200D1124222EF32DF0623F2E08C00F
:101CB0008C3621F4832D8068382E02C0883641F49A
:101CC000F70193FD859193FF81917F018111B3CF3E
:101CD000982F9F7D9554933028F40C5F1F4F9FE3FE
:101CE00099830DC0833631F0833771F0833509F065
:101CF00059C021C0F801808189830E5F1F4F88245D
:101D00008394912C530113C02801F2E04F0E511C13
:101D1000F801A080B18036FE03C0692D70E002C0DA
:101D20006FEF7FEFC5010E941D114C018201F32D61
:101D3000FF773F2E16C0280122E0420E511CF80109
:101D4000A080B18036FE03C0692D70E002C06FEF45
:101D50007FEFC5010E940B114C01F32DF0683F2E5F
:101D6000820133FC1BC0822D90E088169906B0F4E6
:101D7000B60180E290E00E9428112A94F4CFF50188
:101D800037FC859137FE81915F01B60190E00E949A
:101D9000281121102A9421E0821A910881149104BB
:101DA00071F7E8C0843611F0893641F5F80137FE45
:101DB00007C060817181828193810C5F1F4F08C0D1
:101DC00060817181072E000C880B990B0E5F1F4FED
:101DD000F32DFF763F2E97FF09C090958095709563
:101DE00061957F4F8F4F9F4FF0683F2E2AE030E084
:101DF000A3010E946411882E861845C0853731F4EE
:101E0000232D2F7EB22E2AE030E025C0932D997F1E
:101E1000B92E8F36C1F018F4883579F0B5C0803707
:101E200019F0883721F0B0C0E92FE061BE2EB4FE72
:101E30000DC0FB2DF460BF2E09C034FE0AC0292F4F
:101E40002660B22E06C028E030E005C020E130E078
:101E500002C020E132E0F801B7FE07C06081718165
:101E6000828193810C5F1F4F06C06081718180E089
:101E700090E00E5F1F4FA3010E946411882E861808
:101E8000FB2DFF773F2E36FE0DC0232D2E7FA22E79
:101E9000891458F434FE0BC032FC09C0832D8E7EA9
:101EA000A82E05C0B82CA32C03C0B82C01C0B92C97
:101EB000A4FE0FC0FE01E80DF11D8081803321F4E6
:101EC0009A2D997EA92E09C0A2FE06C0B394B394A0
:101ED00004C08A2D867809F0B394A3FC11C0A0FE3B
:101EE00006C0B21488F4280C922C9B180EC0B214B1
:101EF00060F4B60180E290E00E942811B394F7CF1D
:101F0000B21418F42B1802C0982C212CA4FE10C077
:101F1000B60180E390E00E942811A2FE17C0A1FC48
:101F200003C088E790E002C088E590E0B6010CC0ED
:101F30008A2D867859F0A1FE02C08BE201C080E2B2
:101F4000A7FC8DE2B60190E00E942811891438F4B4
:101F5000B60180E390E00E9428119A94F7CF8A940A
:101F6000F301E80DF11D8081B60190E00E94281177
:101F70008110F5CF222009F442CEB60180E290E034
:101F80000E9428112A94F6CFF6018681978102C01B
:101F90008FEF9FEF2B96E2E10C9410120F931F939B
:101FA000CF93DF93869F8001879F100D969F100D22
:101FB0001124C8010E94EA0FEC01009729F0A80142
:101FC00060E070E00E941611CE01DF91CF911F9169
:101FD0000F9108950F931F93CF93DF938230910554
:101FE00010F482E090E0E0919B02F0919C0220E0EE
:101FF00030E0A0E0B0E0309719F1408151810281DA
:10200000138148175907C8F08417950769F410978A
:1020100031F012960C93129713961C9327C00093DD
:102020009B0210939C0222C02115310519F0421722
:10203000530718F49A01BD01EF01DF01F801DBCF6E
:1020400021153105F9F0281B390B2430310580F4B6
:102050008A819B816115710521F0FB019383828345
:1020600004C090939C0280939B02FE01329644C070
:10207000FE01E20FF31F81939193225031093983BE
:1020800028833AC02091990230919A02232B41F47F
:1020900020910A0130910B0130939A02209399020A
:1020A00020910801309109012115310541F42DB726
:1020B0003EB740910C0150910D01241B350BE0916E
:1020C0009902F0919A02E217F307A0F42E1B3F0B3E
:1020D0002817390778F0AC014E5F5F4F241735079A
:1020E00048F04E0F5F1F50939A02409399028193DC
:1020F000919302C0E0E0F0E0CF01DF91CF911F911A
:102100000F910895CF93DF93009709F481C0FC01EC
:10211000329713821282A0919B02B0919C02109779
:1021200081F420813181820F931F20919902309197
:102130009A022817390751F5F0939A02E093990211
:1021400067C0ED0120E030E0CE17DF0740F44A81A0
:102150005B819E0141155105F1F0EA01F5CFD38372
:10216000C28340815181840F951FC817D90759F444
:1021700088819981840F951F0296918380838A813B
:102180009B81938382832115310529F4F0939C026E
:10219000E0939B023DC0E901FB83EA834991599199
:1021A000C40FD51FEC17FD0761F480819181840F66
:1021B000951F0296E90199838883828193819B838D
:1021C0008A83E0E0F0E012968D919C91139700973E
:1021D00019F0FD01DC01F7CF8D919C9111979D01C4
:1021E0002E5F3F4F820F931F2091990230919A02E8
:1021F0002817390769F4309729F410929C0210923D
:102200009B0202C013821282B0939A02A093990299
:10221000DF91CF910895FC0105906150704001104D
:10222000D8F7809590958E0F9F1F0895DC0101C00F
:102230006D9341505040E0F70895FC0161507040AB
:1022400001900110D8F7809590958E0F9F1F0895EB
:102250000F931F93CF93DF93FB01238121FD03C0D5
:102260008FEF9FEF2CC022FF16C04681578124813B
:1022700035814217530744F4A081B1819D012F5F3E
:102280003F4F318320838C93268137812F5F3F4FCF
:102290003783268314C08B01EC01FB010084F18598
:1022A000E02D0995892BE1F6D80116968D919C9128
:1022B0001797019617969C938E931697CE01DF91F0
:1022C000CF911F910F910895FA01AA27283051F15B
:1022D000203181F1E8946F936E7F6E5F7F4F8F4F57
:1022E0009F4FAF4FB1E03ED0B4E03CD0670F781FB6
:1022F000891F9A1FA11D680F791F8A1F911DA11D9B
:102300006A0F711D811D911DA11D20D009F46894D3
:102310003F912AE0269F11243019305D3193DEF67B
:10232000CF010895462F4770405D4193B3E00FD031
:10233000C9F7F6CF462F4F70405D4A3318F0495D1C
:1023400031FD4052419302D0A9F7EACFB4E0A695FF
:102350009795879577956795BA95C9F70097610521
:10236000710508959B01AC010A2E06945795479577
:1023700037952795BA95C9F7620F731F841F951F6C
:10238000A01D0895052E97FB1EF400940E94D911FC
:1023900057FD07D00E942B1207FC03D04EF40C947B
:1023A000D91150954095309521953F4F4F4F5F4F34
:1023B000089590958095709561957F4F8F4F9F4FB1
:1023C00008950E944D12A59F900DB49F900DA49F5B
:1023D000800D911D11240895B7FF0C94E1110E9406
:1023E000E111821B930B08952F923F924F925F92BF
:1023F0006F927F928F929F92AF92BF92CF92DF9215
:10240000EF92FF920F931F93CF93DF93CDB7DEB779
:10241000CA1BDB0B0FB6F894DEBF0FBECDBF09940D
:102420002A88398848885F846E847D848C849B8464
:10243000AA84B984C884DF80EE80FD800C811B8172
:10244000AA81B981CE0FD11D0FB6F894DEBF0FBEA1
:10245000CDBFED010895A1E21A2EAA1BBB1BFD0101
:102460000DC0AA1FBB1FEE1FFF1FA217B307E40773
:10247000F50720F0A21BB30BE40BF50B661F771FCB
:10248000881F991F1A9469F76095709580959095AB
:102490009B01AC01BD01CF010895A29FB001B39F84
:1024A000C001A39F700D811D1124911DB29F700D5D
:0C24B000811D1124911D0895F894FFCFA8
:1024BC00001200100100000000009D022000537467
:1024CC00617274696E67205352414D207465737448
:1024DC002E2E2E0A0D005352414D2074657374201C
:1024EC00636F6D706C657465642077697468200A1D
:1024FC000D253464206572726F727320696E2077BB
:10250C007269746520706861736520616E64200A5D
:10251C000D253464206572726F727320696E20729F
:10252C00657472696576616C2070686173650A0DFB
:10253C00004D454E553A002D2D2D2D2D2D2D2D2D8B
:10254C002D2D2D2D2D2D2D005E006000594F552069
:10255C004C4F5354203A2800504C41592047414D80
:10256C00450053455454494E475300484947485336
:10257C00434F524500504C4159204120534F4E4738
:10258C00004F4C45204252554D0057415000544588
:10259C004E4B4520534A41454C0042524947485402
:1025AC004E45535300444946464943554C495459AA
:1025BC0000564F4C554D45004D435032353135206A
:1025CC006973204E4F5420696E20636F6E66696785
:1025DC0075726174696F6E206D6F646520616674CD
:1025EC00657220726573657421004D43503235312C
:1025FC0035206973204E4F5420696E206E6F726DBA
:10260C00616C206D6F646520616674657220726503
:10261C0073657421002564200A002563200A0025B7
:10262C0064200D0A00504C4159494E472E2E2E0065
:06263C004C4F5354000056
:00000001FF
