:100000000C9460030C947D030C947D030C947D038D
:100010000C947D030C947D030C947D030C947D0360
:100020000C947D030C947D030C947D030C947D0350
:100030000C947D030C947D030C947D030C947D0340
:100040000C947D030C947D030C947D030C947D0330
:100050000C947D030C947D030C947D030C947D0320
:100060000C947D030C947D030C947D030C947D0310
:1000700000000000005C00000C000C007C287C28C4
:1000800058DC68002410480028542840000C000068
:10009000007884008478000054385400107C1000EC
:1000A00080400000101010000040000060100C00A4
:1000B00038543800487C40004864580044542C00B0
:1000C0001C107C005C5424003854240064140C0080
:1000D00068542C0048543800004800008048000054
:1000E0001028440028282800442810000454080040
:1000F00038445C00781478007C5428003844280088
:100100007C4438007C5444007C140400384474005F
:100110007C107C00447C440020403C007C106C003F
:100120007C4040007C187C0078103C00384438004B
:100130007C1408003844B8007C146800485424003B
:10014000047C04007C407C003C603C007C307C00F3
:100150006C106C000C700C0064544C00007C44006B
:100160000C106000447C00000804080080808000BF
:1001700000040800304878007C48300030484800CF
:1001800030487C00306850001078140090A8780047
:100190007C08700050744000808074007C106800FF
:1001A000447C4000781078007808700030483000B7
:1001B000F82810003048F80078100800505828003F
:1001C000083C4800384078003840380078207800F3
:1001D0004830480098A0780048685800107884009B
:1001E000007C00008478100008040804000000006F
:1001F0000000005F00000007000700147F147F1458
:10020000242A7F2A1223130864623649552250009B
:1002100005030000001C2241000041221C00082AA6
:100220001C2A0808083E080800503000000808088A
:100230000808006060000020100804023E51494593
:100240003E00427F400042615149462141454B31C9
:100250001814127F1027454545393C4A4949300159
:10026000710905033649494936064949291E0036B0
:100270003600000056360000000814224114141401
:10028000141441221408000201510906324979412F
:100290003E7E1111117E7F494949363E414141223E
:1002A0007F4141221C7F494949417F090901013EA3
:1002B000414151327F0808087F00417F41002040C2
:1002C000413F017F081422417F404040407F0204AB
:1002D000027F7F0408107F3E4141413E7F090909AA
:1002E000063E4151215E7F09192946464949493157
:1002F00001017F01013F4040403F1F2040201F7F00
:100300002018207F631408146303047804036151E8
:1003100049454300007F4141020408102041417FCC
:100320000000040201020440404040400001020479
:100330000020545454787F4844443838444444207E
:10034000384444487F3854545418087E0901020840
:100350001454543C7F0804047800447D400020403D
:10036000443D00007F10284400417F40007C041879
:1003700004787C0804047838444444387C14141409
:1003800008081414187C7C080404084854545420A9
:10039000043F4440203C4040207C1C2040201C3C2A
:1003A0004030403C44281028440C5050503C446499
:1003B000544C44000836410000007F0000004136E4
:1003C000080002010302010000000000000000001C
:1003D000065F5F0600000000070700070700001423
:1003E0007F7F147F7F1400242E6B6B3A120000462F
:1003F0006630180C666200307A4F5D377A48000428
:1004000007030000000000001C3E634100000000E4
:1004100041633E1C000000082A3E1C1C3E2A0808BE
:10042000083E3E0808000000A0E060000000000850
:100430000808080808000000006060000000006074
:1004400030180C060301003E7F594D7F3E000042EC
:10045000427F7F40400000627359496F660000226E
:100460006349497F360000181C16137F7F10002750
:100470006745457D3900003C7E4B497930000003DB
:100480006371190F070000367F49497F3600000667
:100490004F49693F1E000000006C6C000000000026
:1004A000A0EC6C00000000081C3663410000001442
:1004B00014141414140000004163361C08000002D8
:1004C0000351590F0600003E7F415D5D1F1E007CF9
:1004D0007E13137E7C0000417F7F49497F36001CDC
:1004E0003E634141632200417F7F41637F1C0041A5
:1004F0007F7F495D416300417F7F491D0103001CEF
:100500003E6341517372007F7F08087F7F000000C7
:10051000417F7F41000000307040417F3F0100413A
:100520007F7F081C776300417F7F41406070007FC0
:100530007F060C067F7F007F7F060C187F7F001CE4
:100540003E6341633E1C00417F7F49090F06001E48
:100550003F21717F5E0000417F7F19396F46002681
:10056000674D597B32000003417F7F410300007FCC
:100570007F40407F7F00001F3F60603F1F00007F83
:100580007F3018307F7F0063771C081C776300077B
:100590004F78784F0700006773594D47637100002B
:1005A0007F7F41410000000103060C18306000000D
:1005B00041417F7F000000080C0603060C08008004
:1005C000808080808080800818306030180800208B
:1005D0007454543C784000413F7F44447C38003898
:1005E0007C44446C280000307848493F7F40003804
:1005F0007C54545C180000487E7F49030200009838
:10060000BCA4A4F87C0400417F7F08047C7800002F
:10061000447D7D4000000040C484FD7D0000004119
:100620007F7F10386C440000417F7F400000007CD9
:100630007C0C180C7C78007C7C04047C78000038EE
:100640007C44447C38000084FCF8A4243C18001846
:100650003C24A4F8FC8400447C78441C1800004826
:100660005C54547424000000043E7F442400003C89
:100670007C40403C7C40001C3C60603C1C00003CDA
:100680007C6030607C3C00446C3810386C44009CCA
:10069000BCA0A0FC7C00004C64745C4C64000008AE
:1006A000083E7741410000000000777700000041DC
:1006B00041773E0808000002030103020301000025
:1006C00011241FBECFEFD4E0DEBFCDBF11E0A0E00C
:1006D000B1E0E2EEF8E102C005900D92AC39B1074D
:1006E000D9F721E0ACE9B1E001C01D92A63AB2070A
:1006F000E1F70E947F030C946F0C0C9400000E94A1
:10070000B4030E9410048FE190E00E94AB030E94AA
:1007100010040E94B0040E94DC050E94280782E6B3
:1007200090E00E9434070E942E07082E000C990BBF
:100730000E94F907F4CF5D9BFECF8CB908955F9BB3
:10074000FECF8CB10895599890BD89B988E18AB9D6
:100750008EE880BD08950E94A3036FE973E08BE9E2
:1007600093E00E949807089580E280BF80E885BFEB
:100770000895FB01F85E80830895985EFC018081F6
:100780000895EF92FF920F931F93CF93DF938EE024
:1007900091E09F938F930E94E3070E9488077C015A
:1007A0000E948D070F900F90C0E0D8E100E010E0AC
:1007B0000E94880788839881981711F00F5F1F4F58
:1007C0002196C11580E2D80799F7C7010E948D07CD
:1007D000C0E0D8E1E12CF12C0E948807988198179D
:1007E00019F08FEFE81AF80A2196C11580E2D807B0
:1007F00099F7FF92EF921F930F9386E291E09F93F8
:100800008F930E94E3070F900F900F900F900F901F
:100810000F90DF91CF911F910F91FF90EF9008956E
:10082000B89A83B7886083BF83B78F7B83BF83B752
:100830008F7D83BF83B7806183BF83B78B7F83BF87
:1008400083B78D7F83BF83B7816083BF11BE089557
:10085000809300140895809100140895CF93DF933E
:10086000EC0181E80E94280482E08A95F1F70000FB
:100870000E942B048C8382E08A95F1F7000080E8C7
:100880000E94280482E08A95F1F700000E942B0460
:100890008D8382E08A95F1F70000DF91CF91089572
:1008A000CF93DF93EC0182E80E94280482E08A95CE
:1008B000F1F700000E942B04888382E08A95F1F70B
:1008C000000083E80E94280482E08A95F1F7000086
:1008D0000E942B04898382E08A95F1F70000DF9162
:1008E000CF910895CF93DF93EC018C818E3228F065
:1008F00081E090E0998388830BC08B3428F481E0F9
:1009000090E09983888304C084E090E09983888391
:100910008D81813F40F082E090E09B838A8381E378
:1009200090E00E94F9078D818A3040F483E090E0E6
:100930009B838A8380E390E00E94F9078D818B5529
:100940008F3428F484E090E09B838A8302C085E0A2
:100950008D83DF91CF9108958B9880B3887008952F
:10096000E0910201F09103018EEA8083E09102019F
:10097000F091030181EA8083E0910201F09103018B
:100980008AED8083E0910201F091030182E180838E
:10099000E0910201F091030188EC8083E091020173
:1009A000F091030188EA8083E0910201F091030154
:1009B0008FE38083E0910201F091030185ED808354
:1009C000E0910201F091030180E88083E09102014F
:1009D000F091030181E88083E0910201F09103012D
:1009E00080E58083E0910201F091030189ED80832D
:1009F000E0910201F091030181E28083E091020124
:100A0000F091030180E28083E0910201F091030103
:100A100082E08083E0910201F09103018BED8083FD
:100A2000E0910201F091030180E38083E0910201F3
:100A3000F09103018DEA8083E0910201F0910301BE
:100A40001082E0910201F091030184EA8083E09139
:100A50000201F091030186EA8083E0910201F091A6
:100A600003018FEA80830895E0910201F091030170
:100A700080830895E0910001F09101018083089541
:100A8000E0910201F0910301982F9F709F5F908386
:100A9000E0910201F091030182958F70805F808365
:100AA0000895E0910201F09103018055808308953B
:100AB000CF93DF93C82F862FD42F0E9451058D2FFF
:100AC0000E9440058C2FCC0F990B8097880F991F9F
:100AD000880F991F880F991FFC01E953FC4F815320
:100AE0009C4F2491A0910001B09101012C9331966B
:100AF000E817F907B1F7DF91CF910895CF93DF930E
:100B0000C82F862FD42F0E9451058D2F0E9440059B
:100B10008C2FCC0F990B9C01220F331F220F331FF8
:100B2000820F931F20E030E0805A9109FC01E20F10
:100B3000F31FE451FE4FE491A0910001B091010137
:100B4000EC932F5F3F4F2530310581F7DF91CF9137
:100B50000895CF93DF93C82F862FD42F0E9451057D
:100B60008D2F0E9440058C2FCC0F990B8097880FFA
:100B7000991F880F991FFC01E059FF4F8C589F4F18
:100B80002491A0910001B09101012C933196E817B6
:100B9000F907B1F7DF91CF9108950E94510580E0E8
:100BA0000E94400580E890E0E0910001F091010191
:100BB00010820197C9F70895CF93C0E08C2F0E944F
:100BC000510580E00E94400580E890E0E09100013E
:100BD000F091010110820197C9F7CF5FC83071F71A
:100BE000CF9108950F931F93CF93DF93FC01D62FDE
:100BF000C42F253049F0283019F02430B1F508C051
:100C00008081811109C031C08081811113C02DC044
:100C1000808181111DC029C08F010F5F1F4F4C2F94
:100C20006D2F0E945805C75FF80181918F018111D6
:100C3000F6CF1BC08F010F5F1F4F4C2F6D2F0E94EF
:100C40007E05CA5FF80181918F018111F6CF0DC039
:100C50008F010F5F1F4F4C2F6D2F0E94A905CB5F97
:100C6000F80181918F018111F6CFDF91CF911F9112
:100C70000F910895FC01718360830E94B0040E946B
:100C8000DC050895CF93DF93EC0128E040E060E0BD
:100C900081E891E00E94F20528E040E061E087E809
:100CA00091E00E94F20528E044E063E088E991E0E9
:100CB0000E94F205E881F98128E049E065E084813D
:100CC00095810E94F20528E044E067E08AE991E01E
:100CD0000E94F205DF91CF9108957C01EB0110E0B5
:100CE000D12C01E001C0102FCE010E942E04CE01B4
:100CF0000E9472048A819B8184309105A1F3823025
:100D0000910589F4113081F7D701ED91FC9111978C
:100D1000828193818D939C930E94DC05C7010E9480
:100D200042061D2DE1CF0397F9F61130E9F6D70100
:100D3000ED91FC911197808191818D939C930E94FC
:100D4000DC05C7010E9442061D2DCECFCF93DF9355
:100D5000DC01FB0110865583448312968C91129717
:100D6000882321F113968D919C9114979183808310
:100D70001296CC911297D0E02197CC0FDD1FCA0FAD
:100D8000DB1F8B819C819383828312968C911297B7
:100D9000C82FD0E0CC0FDD1FCA0FDB1F7C836B8315
:100DA0008F5F12968C931297811111C01196FC934C
:100DB000EE931496FC93EE931397F183E083F38301
:100DC000E28312968C9112978F5F12968C93DF912B
:100DD000CF910895CF93DF93FC01DB0115965C93CF
:100DE0004E93149780858823F9F08185928511961A
:100DF0009C938E93C085D0E02197CC0FDD1FCE0F42
:100E0000DF1F89859A8513969C938E931297808510
:100E1000C82FD0E0CC0FDD1FCE0FDF1F7A87698788
:100E20008F5F8087811111C0B287A1870B2E119629
:100E30000C921197AC930A2E1B2E13961C920E92B5
:100E40001124129780858F5F8087DF91CF9108955D
:100E500080EB87BBC49A81E58DB908958FB1089561
:100E60008FB9779BFECF0895C498082E000C990B7C
:100E70000E943007C49A08958F929F92AF92BF92BA
:100E8000CF92DF92EF92FF92CF93DF93EC016881D4
:100E900079818A819B81611571058105910521F414
:100EA00064E279ED8BE597E02DE133EF41E050E02E
:100EB0000E94D50B49015A019B01AC01A7EAB1E49C
:100EC0000E94F40B6B017C01ACEEB4EFA501940120
:100ED0000E94020CDC01CB018C0D9D1DAE1DBF1DBF
:100EE000B7FF03C00197A109B04888839983AA83FB
:100EF000BB839F77DF91CF91FF90EF90DF90CF90F2
:100F0000BF90AF909F908F9008950E943C070895E6
:100F100084E091E00E943C070895A0E0B0E0809357
:100F2000040190930501A0930601B0930701089571
:100F30000F931F93CF93DF93009731F461157105E1
:100F400019F480E090E03AC08B01EC016EE070E0B3
:100F500081E090E00E94E109FC01892B91F380E897
:100F600083830115110571F01387028781E883835C
:100F700080919C0190919D01892B21F4F0939D011A
:100F8000E0939C012097C9F0D187C087838182605C
:100F9000838380919E0190919F01892B71F4F0933E
:100FA0009F01E0939E018091A0019091A101892B66
:100FB00021F4F093A101E093A001CF01DF91CF9143
:100FC0001F910F910895A0E0B0E0E9EEF7E00C94D6
:100FD000170CAE014B5F5F4FFA0161917191AF0148
:100FE00080919E0190919F010E940008E2E00C9484
:100FF000330C60919E0170919F010E943B0B0895FC
:10100000ABE0B0E0E6E0F8E00C94070C6C017B018B
:101010008A01FC0117821682838181FFCCC1CE0137
:1010200001963C01F6019381F70193FD859193FFB1
:1010300081917F01882309F4BAC1853239F493FD87
:10104000859193FF81917F01853229F4B60190E06B
:101050000E943B0BE7CF912C212C312CFFE1F315A3
:10106000D8F08B3279F038F4803279F08332A1F401
:10107000232D20611DC08D3261F0803369F4232D52
:10108000216016C0832D8260382EE32DE4603E2E51
:101090002AC0F32DF8601DC037FC2DC020ED280FAD
:1010A0002A3040F08E32B9F436FC81C1232D206401
:1010B000322E19C036FE06C08AE0989E200D1124FB
:1010C000922E11C0EAE02E9E200D1124222EF32D27
:1010D000F0623F2E08C08C3621F4832D8068382EB4
:1010E00002C0883641F4F70193FD859193FF819109
:1010F0007F018111B3CF982F9F7D9554933028F4B1
:101100000C5F1F4F9FE399830DC0833631F0833707
:1011100071F0833509F059C021C0F80180818983BD
:101120000E5F1F4F88248394912C530113C0280114
:10113000F2E04F0E511CF801A080B18036FE03C0D2
:10114000692D70E002C06FEF7FEFC5010E94300B88
:101150004C018201F32DFF773F2E16C0280122E0BB
:10116000420E511CF801A080B18036FE03C0692DEB
:1011700070E002C06FEF7FEFC5010E941E0B4C01B3
:10118000F32DF0683F2E820133FC1BC0822D90E0CE
:1011900088169906B0F4B60180E290E00E943B0BFD
:1011A0002A94F4CFF50137FC859137FE81915F01D8
:1011B000B60190E00E943B0B21102A9421E0821A94
:1011C00091088114910471F7E8C0843611F08936D2
:1011D00041F5F80137FE07C06081718182819381FA
:1011E0000C5F1F4F08C060817181072E000C880BB7
:1011F000990B0E5F1F4FF32DFF763F2E97FF09C00F
:1012000090958095709561957F4F8F4F9F4FF068B7
:101210003F2E2AE030E0A3010E94770B882E86182B
:1012200045C0853731F4232D2F7EB22E2AE030E0E1
:1012300025C0932D997FB92E8F36C1F018F48835CB
:1012400079F0B5C0803719F0883721F0B0C0E92FA8
:10125000E061BE2EB4FE0DC0FB2DF460BF2E09C0B0
:1012600034FE0AC0292F2660B22E06C028E030E0E6
:1012700005C020E130E002C020E132E0F801B7FE15
:1012800007C060817181828193810C5F1F4F06C00E
:101290006081718180E090E00E5F1F4FA3010E948A
:1012A000770B882E8618FB2DFF773F2E36FE0DC05C
:1012B000232D2E7FA22E891458F434FE0BC032FC4D
:1012C00009C0832D8E7EA82E05C0B82CA32C03C088
:1012D000B82C01C0B92CA4FE0FC0FE01E80DF11D11
:1012E0008081803321F49A2D997EA92E09C0A2FE17
:1012F00006C0B394B39404C08A2D867809F0B394E1
:10130000A3FC11C0A0FE06C0B21488F4280C922CD5
:101310009B180EC0B21460F4B60180E290E00E9407
:101320003B0BB394F7CFB21418F42B1802C0982CCF
:10133000212CA4FE10C0B60180E390E00E943B0B7C
:10134000A2FE17C0A1FC03C088E790E002C088E5B8
:1013500090E0B6010CC08A2D867859F0A1FE02C03B
:101360008BE201C080E2A7FC8DE2B60190E00E9412
:101370003B0B891438F4B60180E390E00E943B0BEC
:101380009A94F7CF8A94F301E80DF11D8081B6019C
:1013900090E00E943B0B8110F5CF222009F442CE51
:1013A000B60180E290E00E943B0B2A94F6CFF60152
:1013B0008681978102C08FEF9FEF2B96E2E10C941C
:1013C000230C0F931F93CF93DF93869F8001879FFA
:1013D000100D969F100D1124C8010E94FD09EC010B
:1013E000009729F0A80160E070E00E94290BCE016F
:1013F000DF91CF911F910F9108950F931F93CF937A
:10140000DF938230910510F482E090E0E091A40136
:10141000F091A50120E030E0A0E0B0E0309719F1B4
:10142000408151810281138148175907C8F0841700
:10143000950769F4109731F012960C931297139652
:101440001C9327C00093A4011093A50122C021156D
:10145000310519F04217530718F49A01BD01EF0145
:10146000DF01F801DBCF21153105F9F0281B390B1D
:101470002430310580F48A819B816115710521F04A
:10148000FB019383828304C09093A5018093A40100
:10149000FE01329644C0FE01E20FF31F8193919347
:1014A00022503109398328833AC02091A20130911A
:1014B000A301232B41F420910A0130910B013093B9
:1014C000A3012093A2012091080130910901211567
:1014D000310541F42DB73EB740910C0150910D01FB
:1014E000241B350BE091A201F091A301E217F30751
:1014F000A0F42E1B3F0B2817390778F0AC014E5F84
:101500005F4F2417350748F04E0F5F1F5093A3011C
:101510004093A2018193919302C0E0E0F0E0CF01FB
:10152000DF91CF911F910F910895CF93DF93009793
:1015300009F481C0FC01329713821282A091A401A8
:10154000B091A501109781F420813181820F931F02
:101550002091A2013091A3012817390751F5F0938A
:10156000A301E093A20167C0ED0120E030E0CE17B7
:10157000DF0740F44A815B819E0141155105F1F07E
:10158000EA01F5CFD383C28340815181840F951F37
:10159000C817D90759F488819981840F951F02963D
:1015A000918380838A819B81938382832115310576
:1015B00029F4F093A501E093A4013DC0E901FB8368
:1015C000EA8349915991C40FD51FEC17FD0761F4C7
:1015D00080819181840F951F0296E9019983888308
:1015E000828193819B838A83E0E0F0E012968D9163
:1015F0009C911397009719F0FD01DC01F7CF8D91B5
:101600009C9111979D012E5F3F4F820F931F209158
:10161000A2013091A3012817390769F4309729F402
:101620001092A5011092A40102C013821282B093FD
:10163000A301A093A201DF91CF910895FC01059031
:10164000615070400110D8F7809590958E0F9F1FC4
:101650000895DC0101C06D9341505040E0F70895BA
:10166000FC016150704001900110D8F78095909571
:101670008E0F9F1F08950F931F93CF93DF93FB014E
:10168000238121FD03C08FEF9FEF2CC022FF16C0E6
:1016900046815781248135814217530744F4A08144
:1016A000B1819D012F5F3F4F318320838C93268131
:1016B00037812F5F3F4F3783268314C08B01EC01A6
:1016C000FB010084F185E02D0995892BE1F6D80115
:1016D00016968D919C911797019617969C938E93D1
:1016E0001697CE01DF91CF911F910F910895FA01C6
:1016F000AA27283051F1203181F1E8946F936E7F51
:101700006E5F7F4F8F4F9F4FAF4FB1E03ED0B4E041
:101710003CD0670F781F891F9A1FA11D680F791F82
:101720008A1F911DA11D6A0F711D811D911DA11D93
:1017300020D009F468943F912AE0269F11243019A3
:10174000305D3193DEF6CF010895462F4770405D3E
:101750004193B3E00FD0C9F7F6CF462F4F70405DED
:101760004A3318F0495D31FD4052419302D0A9F748
:10177000EACFB4E0A6959795879577956795BA9542
:10178000C9F700976105710508959B01AC010A2E08
:1017900006945795479537952795BA95C9F7620FDF
:1017A000731F841F951FA01D0895052E97FB1EF41F
:1017B00000940E94EC0B57FD07D00E943E0C07FCE2
:1017C00003D04EF40C94EC0B509540953095219538
:1017D0003F4F4F4F5F4F089590958095709561955D
:1017E0007F4F8F4F9F4F08950E94600CA59F900DD3
:1017F000B49F900DA49F800D911D11240895B7FFF3
:101800000C94F40B0E94F40B821B930B08952F92FF
:101810003F924F925F926F927F928F929F92AF9280
:10182000BF92CF92DF92EF92FF920F931F93CF93CD
:10183000DF93CDB7DEB7CA1BDB0B0FB6F894DEBF64
:101840000FBECDBF09942A88398848885F846E848A
:101850007D848C849B84AA84B984C884DF80EE80D4
:10186000FD800C811B81AA81B981CE0FD11D0FB6DD
:10187000F894DEBF0FBECDBFED010895A1E21A2E90
:10188000AA1BBB1BFD010DC0AA1FBB1FEE1FFF1F24
:10189000A217B307E407F50720F0A21BB30BE40B74
:1018A000F50B661F771F881F991F1A9469F76095BB
:1018B0007095809590959B01AC01BD01CF01089575
:1018C000A29FB001B39FC001A39F700D811D112481
:1018D000911DB29F700D811D1124911D0895F894E2
:0218E000FFCF38
:1018E20000120010010000000000A6012000537445
:1018F200617274696E67205352414D20746573742E
:101902002E2E2E0A0D005352414D20746573742001
:10191200636F6D706C657465642077697468200A02
:101922000D253464206572726F727320696E2077A0
:101932007269746520706861736520616E64200A43
:101942000D253464206572726F727320696E207285
:10195200657472696576616C2070686173650A0DE1
:10196200004D454E553A002D2D2D2D2D2D2D2D2D71
:0C1972002D2D2D2D2D2D2D005E00600070
:00000001FF
