:100000000C9438000C9442000C9442000C94420072
:100010000C9442000C9442000C9442000C94420058
:100020000C9442000C9442000C9442000C94420048
:100030000C9442000C9442000C9442000C94420038
:100040000C9442000C9442000C9442000C94420028
:100050000C9442000C9442000C9442000C94420018
:100060000C9442000C9442000C9442000C94420008
:1000700011241FBECFEFD4E0DEBFCDBF0E944400ED
:100080000C9465000C9400008BE090E00E944D0001
:100090000E9461000E945D00FBCF599890BD89B914
:1000A00088E18AB92BB181E090E002C0880F991FE6
:1000B0002A95E2F78E6080BD08955D9BFECF8CB9D6
:0E00C00008955F9BFECF8CB10895F894FFCF9A
:00000001FF
